{
  "address": "0x99e8b6F76777d240d779b04b1840c1e8Ae738097",
  "abi": [
    {
      "inputs": [
        {
          "internalType": "address",
          "name": "_assetToken1",
          "type": "address"
        },
        {
          "internalType": "address",
          "name": "_token0",
          "type": "address"
        },
        {
          "internalType": "address",
          "name": "_pool",
          "type": "address"
        },
        {
          "internalType": "address",
          "name": "_positionManager",
          "type": "address"
        },
        {
          "internalType": "address",
          "name": "_swapRouter",
          "type": "address"
        },
        {
          "internalType": "uint24",
          "name": "_fee",
          "type": "uint24"
        },
        {
          "internalType": "address",
          "name": "_owner",
          "type": "address"
        }
      ],
      "stateMutability": "nonpayable",
      "type": "constructor"
    },
    {
      "inputs": [
        {
          "internalType": "address",
          "name": "target",
          "type": "address"
        }
      ],
      "name": "AddressEmptyCode",
      "type": "error"
    },
    {
      "inputs": [
        {
          "internalType": "address",
          "name": "account",
          "type": "address"
        }
      ],
      "name": "AddressInsufficientBalance",
      "type": "error"
    },
    {
      "inputs": [
        {
          "internalType": "address",
          "name": "spender",
          "type": "address"
        },
        {
          "internalType": "uint256",
          "name": "allowance",
          "type": "uint256"
        },
        {
          "internalType": "uint256",
          "name": "needed",
          "type": "uint256"
        }
      ],
      "name": "ERC20InsufficientAllowance",
      "type": "error"
    },
    {
      "inputs": [
        {
          "internalType": "address",
          "name": "sender",
          "type": "address"
        },
        {
          "internalType": "uint256",
          "name": "balance",
          "type": "uint256"
        },
        {
          "internalType": "uint256",
          "name": "needed",
          "type": "uint256"
        }
      ],
      "name": "ERC20InsufficientBalance",
      "type": "error"
    },
    {
      "inputs": [
        {
          "internalType": "address",
          "name": "approver",
          "type": "address"
        }
      ],
      "name": "ERC20InvalidApprover",
      "type": "error"
    },
    {
      "inputs": [
        {
          "internalType": "address",
          "name": "receiver",
          "type": "address"
        }
      ],
      "name": "ERC20InvalidReceiver",
      "type": "error"
    },
    {
      "inputs": [
        {
          "internalType": "address",
          "name": "sender",
          "type": "address"
        }
      ],
      "name": "ERC20InvalidSender",
      "type": "error"
    },
    {
      "inputs": [
        {
          "internalType": "address",
          "name": "spender",
          "type": "address"
        }
      ],
      "name": "ERC20InvalidSpender",
      "type": "error"
    },
    {
      "inputs": [
        {
          "internalType": "address",
          "name": "receiver",
          "type": "address"
        },
        {
          "internalType": "uint256",
          "name": "assets",
          "type": "uint256"
        },
        {
          "internalType": "uint256",
          "name": "max",
          "type": "uint256"
        }
      ],
      "name": "ERC4626ExceededMaxDeposit",
      "type": "error"
    },
    {
      "inputs": [
        {
          "internalType": "address",
          "name": "receiver",
          "type": "address"
        },
        {
          "internalType": "uint256",
          "name": "shares",
          "type": "uint256"
        },
        {
          "internalType": "uint256",
          "name": "max",
          "type": "uint256"
        }
      ],
      "name": "ERC4626ExceededMaxMint",
      "type": "error"
    },
    {
      "inputs": [
        {
          "internalType": "address",
          "name": "owner",
          "type": "address"
        },
        {
          "internalType": "uint256",
          "name": "shares",
          "type": "uint256"
        },
        {
          "internalType": "uint256",
          "name": "max",
          "type": "uint256"
        }
      ],
      "name": "ERC4626ExceededMaxRedeem",
      "type": "error"
    },
    {
      "inputs": [
        {
          "internalType": "address",
          "name": "owner",
          "type": "address"
        },
        {
          "internalType": "uint256",
          "name": "assets",
          "type": "uint256"
        },
        {
          "internalType": "uint256",
          "name": "max",
          "type": "uint256"
        }
      ],
      "name": "ERC4626ExceededMaxWithdraw",
      "type": "error"
    },
    {
      "inputs": [],
      "name": "FailedInnerCall",
      "type": "error"
    },
    {
      "inputs": [],
      "name": "MathOverflowedMulDiv",
      "type": "error"
    },
    {
      "inputs": [
        {
          "internalType": "address",
          "name": "owner",
          "type": "address"
        }
      ],
      "name": "OwnableInvalidOwner",
      "type": "error"
    },
    {
      "inputs": [
        {
          "internalType": "address",
          "name": "account",
          "type": "address"
        }
      ],
      "name": "OwnableUnauthorizedAccount",
      "type": "error"
    },
    {
      "inputs": [],
      "name": "ReentrancyGuardReentrantCall",
      "type": "error"
    },
    {
      "inputs": [
        {
          "internalType": "address",
          "name": "token",
          "type": "address"
        }
      ],
      "name": "SafeERC20FailedOperation",
      "type": "error"
    },
    {
      "anonymous": false,
      "inputs": [
        {
          "indexed": true,
          "internalType": "address",
          "name": "owner",
          "type": "address"
        },
        {
          "indexed": true,
          "internalType": "address",
          "name": "spender",
          "type": "address"
        },
        {
          "indexed": false,
          "internalType": "uint256",
          "name": "value",
          "type": "uint256"
        }
      ],
      "name": "Approval",
      "type": "event"
    },
    {
      "anonymous": false,
      "inputs": [
        {
          "indexed": true,
          "internalType": "address",
          "name": "sender",
          "type": "address"
        },
        {
          "indexed": true,
          "internalType": "address",
          "name": "owner",
          "type": "address"
        },
        {
          "indexed": false,
          "internalType": "uint256",
          "name": "assets",
          "type": "uint256"
        },
        {
          "indexed": false,
          "internalType": "uint256",
          "name": "shares",
          "type": "uint256"
        }
      ],
      "name": "Deposit",
      "type": "event"
    },
    {
      "anonymous": false,
      "inputs": [
        {
          "indexed": true,
          "internalType": "address",
          "name": "manager",
          "type": "address"
        }
      ],
      "name": "ManagerUpdated",
      "type": "event"
    },
    {
      "anonymous": false,
      "inputs": [
        {
          "indexed": true,
          "internalType": "address",
          "name": "previousOwner",
          "type": "address"
        },
        {
          "indexed": true,
          "internalType": "address",
          "name": "newOwner",
          "type": "address"
        }
      ],
      "name": "OwnershipTransferred",
      "type": "event"
    },
    {
      "anonymous": false,
      "inputs": [
        {
          "indexed": true,
          "internalType": "uint256",
          "name": "tokenId",
          "type": "uint256"
        },
        {
          "indexed": false,
          "internalType": "uint128",
          "name": "liquidity",
          "type": "uint128"
        },
        {
          "indexed": false,
          "internalType": "int24",
          "name": "tickLower",
          "type": "int24"
        },
        {
          "indexed": false,
          "internalType": "int24",
          "name": "tickUpper",
          "type": "int24"
        }
      ],
      "name": "PositionCreated",
      "type": "event"
    },
    {
      "anonymous": false,
      "inputs": [
        {
          "indexed": true,
          "internalType": "uint256",
          "name": "tokenId",
          "type": "uint256"
        },
        {
          "indexed": false,
          "internalType": "uint128",
          "name": "liquidityRemoved",
          "type": "uint128"
        },
        {
          "indexed": false,
          "internalType": "uint256",
          "name": "amount0",
          "type": "uint256"
        },
        {
          "indexed": false,
          "internalType": "uint256",
          "name": "amount1",
          "type": "uint256"
        }
      ],
      "name": "PositionDecreased",
      "type": "event"
    },
    {
      "anonymous": false,
      "inputs": [
        {
          "indexed": true,
          "internalType": "uint256",
          "name": "tokenId",
          "type": "uint256"
        },
        {
          "indexed": false,
          "internalType": "uint128",
          "name": "liquidityAdded",
          "type": "uint128"
        },
        {
          "indexed": false,
          "internalType": "uint256",
          "name": "amount0",
          "type": "uint256"
        },
        {
          "indexed": false,
          "internalType": "uint256",
          "name": "amount1",
          "type": "uint256"
        }
      ],
      "name": "PositionIncreased",
      "type": "event"
    },
    {
      "anonymous": false,
      "inputs": [
        {
          "indexed": true,
          "internalType": "uint256",
          "name": "tokenId",
          "type": "uint256"
        },
        {
          "indexed": false,
          "internalType": "uint256",
          "name": "amount0",
          "type": "uint256"
        },
        {
          "indexed": false,
          "internalType": "uint256",
          "name": "amount1",
          "type": "uint256"
        }
      ],
      "name": "RewardsCollected",
      "type": "event"
    },
    {
      "anonymous": false,
      "inputs": [
        {
          "indexed": true,
          "internalType": "address",
          "name": "tokenIn",
          "type": "address"
        },
        {
          "indexed": true,
          "internalType": "address",
          "name": "tokenOut",
          "type": "address"
        },
        {
          "indexed": false,
          "internalType": "uint256",
          "name": "amountIn",
          "type": "uint256"
        },
        {
          "indexed": false,
          "internalType": "uint256",
          "name": "amountOut",
          "type": "uint256"
        }
      ],
      "name": "TokensSwapped",
      "type": "event"
    },
    {
      "anonymous": false,
      "inputs": [
        {
          "indexed": true,
          "internalType": "address",
          "name": "from",
          "type": "address"
        },
        {
          "indexed": true,
          "internalType": "address",
          "name": "to",
          "type": "address"
        },
        {
          "indexed": false,
          "internalType": "uint256",
          "name": "value",
          "type": "uint256"
        }
      ],
      "name": "Transfer",
      "type": "event"
    },
    {
      "anonymous": false,
      "inputs": [
        {
          "indexed": true,
          "internalType": "address",
          "name": "sender",
          "type": "address"
        },
        {
          "indexed": true,
          "internalType": "address",
          "name": "receiver",
          "type": "address"
        },
        {
          "indexed": true,
          "internalType": "address",
          "name": "owner",
          "type": "address"
        },
        {
          "indexed": false,
          "internalType": "uint256",
          "name": "assets",
          "type": "uint256"
        },
        {
          "indexed": false,
          "internalType": "uint256",
          "name": "shares",
          "type": "uint256"
        }
      ],
      "name": "Withdraw",
      "type": "event"
    },
    {
      "inputs": [],
      "name": "DEFAULT_RANGE_BPS",
      "outputs": [
        {
          "internalType": "uint16",
          "name": "",
          "type": "uint16"
        }
      ],
      "stateMutability": "view",
      "type": "function"
    },
    {
      "inputs": [
        {
          "internalType": "address",
          "name": "owner",
          "type": "address"
        },
        {
          "internalType": "address",
          "name": "spender",
          "type": "address"
        }
      ],
      "name": "allowance",
      "outputs": [
        {
          "internalType": "uint256",
          "name": "",
          "type": "uint256"
        }
      ],
      "stateMutability": "view",
      "type": "function"
    },
    {
      "inputs": [
        {
          "internalType": "address",
          "name": "spender",
          "type": "address"
        },
        {
          "internalType": "uint256",
          "name": "value",
          "type": "uint256"
        }
      ],
      "name": "approve",
      "outputs": [
        {
          "internalType": "bool",
          "name": "",
          "type": "bool"
        }
      ],
      "stateMutability": "nonpayable",
      "type": "function"
    },
    {
      "inputs": [],
      "name": "asset",
      "outputs": [
        {
          "internalType": "address",
          "name": "",
          "type": "address"
        }
      ],
      "stateMutability": "view",
      "type": "function"
    },
    {
      "inputs": [
        {
          "internalType": "address",
          "name": "account",
          "type": "address"
        }
      ],
      "name": "balanceOf",
      "outputs": [
        {
          "internalType": "uint256",
          "name": "",
          "type": "uint256"
        }
      ],
      "stateMutability": "view",
      "type": "function"
    },
    {
      "inputs": [],
      "name": "collectRewards",
      "outputs": [
        {
          "internalType": "uint256",
          "name": "amount0",
          "type": "uint256"
        },
        {
          "internalType": "uint256",
          "name": "amount1",
          "type": "uint256"
        }
      ],
      "stateMutability": "nonpayable",
      "type": "function"
    },
    {
      "inputs": [
        {
          "internalType": "uint256",
          "name": "shares",
          "type": "uint256"
        }
      ],
      "name": "convertToAssets",
      "outputs": [
        {
          "internalType": "uint256",
          "name": "",
          "type": "uint256"
        }
      ],
      "stateMutability": "view",
      "type": "function"
    },
    {
      "inputs": [
        {
          "internalType": "uint256",
          "name": "assets",
          "type": "uint256"
        }
      ],
      "name": "convertToShares",
      "outputs": [
        {
          "internalType": "uint256",
          "name": "",
          "type": "uint256"
        }
      ],
      "stateMutability": "view",
      "type": "function"
    },
    {
      "inputs": [
        {
          "internalType": "uint256",
          "name": "amount0Desired",
          "type": "uint256"
        },
        {
          "internalType": "uint256",
          "name": "amount1Desired",
          "type": "uint256"
        },
        {
          "internalType": "uint256",
          "name": "amount0Min",
          "type": "uint256"
        },
        {
          "internalType": "uint256",
          "name": "amount1Min",
          "type": "uint256"
        },
        {
          "internalType": "uint256",
          "name": "deadline",
          "type": "uint256"
        }
      ],
      "name": "createPosition",
      "outputs": [
        {
          "internalType": "uint256",
          "name": "tokenId",
          "type": "uint256"
        },
        {
          "internalType": "uint128",
          "name": "liquidity",
          "type": "uint128"
        }
      ],
      "stateMutability": "nonpayable",
      "type": "function"
    },
    {
      "inputs": [],
      "name": "decimals",
      "outputs": [
        {
          "internalType": "uint8",
          "name": "",
          "type": "uint8"
        }
      ],
      "stateMutability": "view",
      "type": "function"
    },
    {
      "inputs": [
        {
          "internalType": "uint256",
          "name": "assets",
          "type": "uint256"
        },
        {
          "internalType": "address",
          "name": "receiver",
          "type": "address"
        }
      ],
      "name": "deposit",
      "outputs": [
        {
          "internalType": "uint256",
          "name": "",
          "type": "uint256"
        }
      ],
      "stateMutability": "nonpayable",
      "type": "function"
    },
    {
      "inputs": [],
      "name": "fee",
      "outputs": [
        {
          "internalType": "uint24",
          "name": "",
          "type": "uint24"
        }
      ],
      "stateMutability": "view",
      "type": "function"
    },
    {
      "inputs": [],
      "name": "getAssetToken",
      "outputs": [
        {
          "internalType": "address",
          "name": "",
          "type": "address"
        }
      ],
      "stateMutability": "view",
      "type": "function"
    },
    {
      "inputs": [],
      "name": "getToken0",
      "outputs": [
        {
          "internalType": "address",
          "name": "",
          "type": "address"
        }
      ],
      "stateMutability": "view",
      "type": "function"
    },
    {
      "inputs": [],
      "name": "getToken1",
      "outputs": [
        {
          "internalType": "address",
          "name": "",
          "type": "address"
        }
      ],
      "stateMutability": "view",
      "type": "function"
    },
    {
      "inputs": [],
      "name": "manager",
      "outputs": [
        {
          "internalType": "address",
          "name": "",
          "type": "address"
        }
      ],
      "stateMutability": "view",
      "type": "function"
    },
    {
      "inputs": [
        {
          "internalType": "address",
          "name": "",
          "type": "address"
        }
      ],
      "name": "maxDeposit",
      "outputs": [
        {
          "internalType": "uint256",
          "name": "",
          "type": "uint256"
        }
      ],
      "stateMutability": "view",
      "type": "function"
    },
    {
      "inputs": [
        {
          "internalType": "address",
          "name": "",
          "type": "address"
        }
      ],
      "name": "maxMint",
      "outputs": [
        {
          "internalType": "uint256",
          "name": "",
          "type": "uint256"
        }
      ],
      "stateMutability": "view",
      "type": "function"
    },
    {
      "inputs": [
        {
          "internalType": "address",
          "name": "owner",
          "type": "address"
        }
      ],
      "name": "maxRedeem",
      "outputs": [
        {
          "internalType": "uint256",
          "name": "",
          "type": "uint256"
        }
      ],
      "stateMutability": "view",
      "type": "function"
    },
    {
      "inputs": [
        {
          "internalType": "address",
          "name": "owner",
          "type": "address"
        }
      ],
      "name": "maxWithdraw",
      "outputs": [
        {
          "internalType": "uint256",
          "name": "",
          "type": "uint256"
        }
      ],
      "stateMutability": "view",
      "type": "function"
    },
    {
      "inputs": [
        {
          "internalType": "uint256",
          "name": "shares",
          "type": "uint256"
        },
        {
          "internalType": "address",
          "name": "receiver",
          "type": "address"
        }
      ],
      "name": "mint",
      "outputs": [
        {
          "internalType": "uint256",
          "name": "",
          "type": "uint256"
        }
      ],
      "stateMutability": "nonpayable",
      "type": "function"
    },
    {
      "inputs": [
        {
          "internalType": "uint128",
          "name": "liquidity",
          "type": "uint128"
        },
        {
          "internalType": "uint256",
          "name": "amount0Min",
          "type": "uint256"
        },
        {
          "internalType": "uint256",
          "name": "amount1Min",
          "type": "uint256"
        },
        {
          "internalType": "uint256",
          "name": "deadline",
          "type": "uint256"
        }
      ],
      "name": "modifyPositionDecrease",
      "outputs": [
        {
          "internalType": "uint256",
          "name": "amount0",
          "type": "uint256"
        },
        {
          "internalType": "uint256",
          "name": "amount1",
          "type": "uint256"
        }
      ],
      "stateMutability": "nonpayable",
      "type": "function"
    },
    {
      "inputs": [
        {
          "internalType": "uint256",
          "name": "amount0Desired",
          "type": "uint256"
        },
        {
          "internalType": "uint256",
          "name": "amount1Desired",
          "type": "uint256"
        },
        {
          "internalType": "uint256",
          "name": "amount0Min",
          "type": "uint256"
        },
        {
          "internalType": "uint256",
          "name": "amount1Min",
          "type": "uint256"
        },
        {
          "internalType": "uint256",
          "name": "deadline",
          "type": "uint256"
        }
      ],
      "name": "modifyPositionIncrease",
      "outputs": [
        {
          "internalType": "uint128",
          "name": "liquidity",
          "type": "uint128"
        },
        {
          "internalType": "uint256",
          "name": "used0",
          "type": "uint256"
        },
        {
          "internalType": "uint256",
          "name": "used1",
          "type": "uint256"
        }
      ],
      "stateMutability": "nonpayable",
      "type": "function"
    },
    {
      "inputs": [],
      "name": "name",
      "outputs": [
        {
          "internalType": "string",
          "name": "",
          "type": "string"
        }
      ],
      "stateMutability": "view",
      "type": "function"
    },
    {
      "inputs": [],
      "name": "owner",
      "outputs": [
        {
          "internalType": "address",
          "name": "",
          "type": "address"
        }
      ],
      "stateMutability": "view",
      "type": "function"
    },
    {
      "inputs": [],
      "name": "pool",
      "outputs": [
        {
          "internalType": "contract IDragonV3Pool",
          "name": "",
          "type": "address"
        }
      ],
      "stateMutability": "view",
      "type": "function"
    },
    {
      "inputs": [],
      "name": "positionLiquidity",
      "outputs": [
        {
          "internalType": "uint128",
          "name": "",
          "type": "uint128"
        }
      ],
      "stateMutability": "view",
      "type": "function"
    },
    {
      "inputs": [],
      "name": "positionManager",
      "outputs": [
        {
          "internalType": "contract IDragonNonfungiblePositionManager",
          "name": "",
          "type": "address"
        }
      ],
      "stateMutability": "view",
      "type": "function"
    },
    {
      "inputs": [],
      "name": "positionTickLower",
      "outputs": [
        {
          "internalType": "int24",
          "name": "",
          "type": "int24"
        }
      ],
      "stateMutability": "view",
      "type": "function"
    },
    {
      "inputs": [],
      "name": "positionTickUpper",
      "outputs": [
        {
          "internalType": "int24",
          "name": "",
          "type": "int24"
        }
      ],
      "stateMutability": "view",
      "type": "function"
    },
    {
      "inputs": [],
      "name": "positionTokenId",
      "outputs": [
        {
          "internalType": "uint256",
          "name": "",
          "type": "uint256"
        }
      ],
      "stateMutability": "view",
      "type": "function"
    },
    {
      "inputs": [
        {
          "internalType": "uint256",
          "name": "assets",
          "type": "uint256"
        }
      ],
      "name": "previewDeposit",
      "outputs": [
        {
          "internalType": "uint256",
          "name": "",
          "type": "uint256"
        }
      ],
      "stateMutability": "view",
      "type": "function"
    },
    {
      "inputs": [
        {
          "internalType": "uint256",
          "name": "shares",
          "type": "uint256"
        }
      ],
      "name": "previewMint",
      "outputs": [
        {
          "internalType": "uint256",
          "name": "",
          "type": "uint256"
        }
      ],
      "stateMutability": "view",
      "type": "function"
    },
    {
      "inputs": [
        {
          "internalType": "uint256",
          "name": "shares",
          "type": "uint256"
        }
      ],
      "name": "previewRedeem",
      "outputs": [
        {
          "internalType": "uint256",
          "name": "",
          "type": "uint256"
        }
      ],
      "stateMutability": "view",
      "type": "function"
    },
    {
      "inputs": [
        {
          "internalType": "uint256",
          "name": "assets",
          "type": "uint256"
        }
      ],
      "name": "previewWithdraw",
      "outputs": [
        {
          "internalType": "uint256",
          "name": "",
          "type": "uint256"
        }
      ],
      "stateMutability": "view",
      "type": "function"
    },
    {
      "inputs": [
        {
          "internalType": "uint256",
          "name": "shares",
          "type": "uint256"
        },
        {
          "internalType": "address",
          "name": "receiver",
          "type": "address"
        },
        {
          "internalType": "address",
          "name": "owner",
          "type": "address"
        }
      ],
      "name": "redeem",
      "outputs": [
        {
          "internalType": "uint256",
          "name": "assets",
          "type": "uint256"
        }
      ],
      "stateMutability": "nonpayable",
      "type": "function"
    },
    {
      "inputs": [],
      "name": "renounceOwnership",
      "outputs": [],
      "stateMutability": "nonpayable",
      "type": "function"
    },
    {
      "inputs": [
        {
          "internalType": "address",
          "name": "_manager",
          "type": "address"
        }
      ],
      "name": "setManager",
      "outputs": [],
      "stateMutability": "nonpayable",
      "type": "function"
    },
    {
      "inputs": [
        {
          "internalType": "uint32",
          "name": "_period",
          "type": "uint32"
        }
      ],
      "name": "setTwapPeriod",
      "outputs": [],
      "stateMutability": "nonpayable",
      "type": "function"
    },
    {
      "inputs": [],
      "name": "swapRouter",
      "outputs": [
        {
          "internalType": "contract IDragonSwapRouter",
          "name": "",
          "type": "address"
        }
      ],
      "stateMutability": "view",
      "type": "function"
    },
    {
      "inputs": [
        {
          "internalType": "bool",
          "name": "zeroForOne",
          "type": "bool"
        },
        {
          "internalType": "uint256",
          "name": "amountIn",
          "type": "uint256"
        },
        {
          "internalType": "uint256",
          "name": "amountOutMinimum",
          "type": "uint256"
        },
        {
          "internalType": "uint160",
          "name": "sqrtPriceLimitX96",
          "type": "uint160"
        },
        {
          "internalType": "uint256",
          "name": "deadline",
          "type": "uint256"
        }
      ],
      "name": "swapTokensExactIn",
      "outputs": [
        {
          "internalType": "uint256",
          "name": "amountOut",
          "type": "uint256"
        }
      ],
      "stateMutability": "nonpayable",
      "type": "function"
    },
    {
      "inputs": [],
      "name": "symbol",
      "outputs": [
        {
          "internalType": "string",
          "name": "",
          "type": "string"
        }
      ],
      "stateMutability": "view",
      "type": "function"
    },
    {
      "inputs": [],
      "name": "token0",
      "outputs": [
        {
          "internalType": "address",
          "name": "",
          "type": "address"
        }
      ],
      "stateMutability": "view",
      "type": "function"
    },
    {
      "inputs": [],
      "name": "token1",
      "outputs": [
        {
          "internalType": "address",
          "name": "",
          "type": "address"
        }
      ],
      "stateMutability": "view",
      "type": "function"
    },
    {
      "inputs": [],
      "name": "totalAssets",
      "outputs": [
        {
          "internalType": "uint256",
          "name": "",
          "type": "uint256"
        }
      ],
      "stateMutability": "view",
      "type": "function"
    },
    {
      "inputs": [],
      "name": "totalSupply",
      "outputs": [
        {
          "internalType": "uint256",
          "name": "",
          "type": "uint256"
        }
      ],
      "stateMutability": "view",
      "type": "function"
    },
    {
      "inputs": [
        {
          "internalType": "address",
          "name": "to",
          "type": "address"
        },
        {
          "internalType": "uint256",
          "name": "value",
          "type": "uint256"
        }
      ],
      "name": "transfer",
      "outputs": [
        {
          "internalType": "bool",
          "name": "",
          "type": "bool"
        }
      ],
      "stateMutability": "nonpayable",
      "type": "function"
    },
    {
      "inputs": [
        {
          "internalType": "address",
          "name": "from",
          "type": "address"
        },
        {
          "internalType": "address",
          "name": "to",
          "type": "address"
        },
        {
          "internalType": "uint256",
          "name": "value",
          "type": "uint256"
        }
      ],
      "name": "transferFrom",
      "outputs": [
        {
          "internalType": "bool",
          "name": "",
          "type": "bool"
        }
      ],
      "stateMutability": "nonpayable",
      "type": "function"
    },
    {
      "inputs": [
        {
          "internalType": "address",
          "name": "newOwner",
          "type": "address"
        }
      ],
      "name": "transferOwnership",
      "outputs": [],
      "stateMutability": "nonpayable",
      "type": "function"
    },
    {
      "inputs": [],
      "name": "twapPeriod",
      "outputs": [
        {
          "internalType": "uint32",
          "name": "",
          "type": "uint32"
        }
      ],
      "stateMutability": "view",
      "type": "function"
    },
    {
      "inputs": [
        {
          "internalType": "uint256",
          "name": "assets",
          "type": "uint256"
        },
        {
          "internalType": "address",
          "name": "receiver",
          "type": "address"
        },
        {
          "internalType": "address",
          "name": "owner",
          "type": "address"
        }
      ],
      "name": "withdraw",
      "outputs": [
        {
          "internalType": "uint256",
          "name": "shares",
          "type": "uint256"
        }
      ],
      "stateMutability": "nonpayable",
      "type": "function"
    }
  ],
  "transactionHash": "0x9ce5af2a2626eeb8912608f7be94691f03bd8dc12c2c8b0b773cb6cb784fa34d",
  "args": [
    "0xe15fC38F6D8c56aF07bbCBe3BAf5708A2Bf42392",
    "0x0555E30da8f98308EdB960aa94C0Db47230d2B9c",
    "0xe62fd4661c85e126744cc335e9bca8ae3d5d19d1",
    "0xa7FDcBe645d6b2B98639EbacbC347e2B575f6F70",
    "0x11DA6463D6Cb5a03411Dbf5ab6f6bc3997Ac7428",
    3000,
    "0x4Cc731B3cAD968cD2734FDDae08DF20ae343b211"
  ],
  "numDeployments": 2,
  "solcInputHash": "bf87b6168302fdb0430c61b7b1b9983f",
  "bytecode": "0x6101806040526009805463ffffffff60b01b1916604b60b21b1790553480156200002857600080fd5b5060405162004859380380620048598339810160408190526200004b916200038f565b80876040518060400160405280601681526020017f447261676f6e53776170205553444320444558204c5000000000000000000000815250604051806040016040528060078152602001664452477573646360c81b8152508160039081620000b49190620004d2565b506004620000c38282620004d2565b505050600080620000da836200023b60201b60201c565b9150915081620000ec576012620000ee565b805b60ff1660a05250506001600160a01b0390811660805281166200012c57604051631e4fbdf760e01b8152600060048201526024015b60405180910390fd5b620001378162000320565b5060016006556001600160a01b038716158015906200015e57506001600160a01b03861615155b620001955760405162461bcd60e51b8152602060048201526006602482015265544f4b454e5360d01b604482015260640162000123565b6001600160a01b03851615801590620001b657506001600160a01b03841615155b8015620001cb57506001600160a01b03831615155b620002055760405162461bcd60e51b815260206004820152600960248201526841444452455353455360b81b604482015260640162000123565b506001600160a01b0394851660c05294841660e05291831661010052821661012052166101405262ffffff1661016052620005e9565b60408051600481526024810182526020810180516001600160e01b031663313ce56760e01b17905290516000918291829182916001600160a01b0387169162000284916200059e565b600060405180830381855afa9150503d8060008114620002c1576040519150601f19603f3d011682016040523d82523d6000602084013e620002c6565b606091505b5091509150818015620002db57506020815110155b156200031357600081806020019051810190620002f99190620005cf565b905060ff811162000311576001969095509350505050565b505b5060009485945092505050565b600580546001600160a01b038381166001600160a01b0319831681179093556040519116919082907f8be0079c531659141344cd1fd0a4f28419497f9722a3daafe3b4186f6b6457e090600090a35050565b80516001600160a01b03811681146200038a57600080fd5b919050565b600080600080600080600060e0888a031215620003ab57600080fd5b620003b68862000372565b9650620003c66020890162000372565b9550620003d66040890162000372565b9450620003e66060890162000372565b9350620003f66080890162000372565b925060a088015162ffffff811681146200040f57600080fd5b91506200041f60c0890162000372565b905092959891949750929550565b634e487b7160e01b600052604160045260246000fd5b600181811c908216806200045857607f821691505b6020821081036200047957634e487b7160e01b600052602260045260246000fd5b50919050565b601f821115620004cd57600081815260208120601f850160051c81016020861015620004a85750805b601f850160051c820191505b81811015620004c957828155600101620004b4565b5050505b505050565b81516001600160401b03811115620004ee57620004ee6200042d565b6200050681620004ff845462000443565b846200047f565b602080601f8311600181146200053e5760008415620005255750858301515b600019600386901b1c1916600185901b178555620004c9565b600085815260208120601f198616915b828110156200056f578886015182559484019460019091019084016200054e565b50858210156200058e5787850151600019600388901b60f8161c191681555b5050505050600190811b01905550565b6000825160005b81811015620005c15760208186018101518583015201620005a5565b506000920191825250919050565b600060208284031215620005e257600080fd5b5051919050565b60805160a05160c05160e051610100516101205161014051610160516140cf6200078a6000396000818161078301528181610e36015281816111490152612b0d0152600081816106a7015281816110fe015281816111a001528181612a820152612b6201526000818161058301528181610d5801528181610da301528181610ea00152818161133b015281816114c10152818161157501528181611755015281816117a00152818161182d015281816127be015261286d0152600081816103ff0152818161095701528181610bf301528181610c7f01526120a10152600081816104cc015281816107100152818161084101528181610d8201528181610e070152818161105f015281816110d60152818161177f0152818161269b0152818161294c01528181612ae10152612bf60152600081816103900152818161067e015281816108cf01528181610d3701528181610dd801528181611085015281816110b001528181611734015281816129e101528181612a610152612abc0152600061101b01526000818161046b015281816125a401526130f801526140cf6000f3fe608060405234801561001057600080fd5b50600436106102f15760003560e01c80638da5cb5b1161019d578063ce96cb77116100e9578063ddca3f43116100a2578063f2fde38b1161007c578063f2fde38b146107cd578063f6207326146107e0578063f8eef10f14610469578063f9c95d461461080c57600080fd5b8063ddca3f431461077e578063ef8b30f7146106c9578063f1c50988146107b957600080fd5b8063ce96cb77146106dc578063ceefe5d1146106ef578063d0ebdbe7146106f8578063d21220a71461070b578063d905777e14610732578063dd62ed3e1461074557600080fd5b8063b3d7f6b911610156578063ba94a31511610130578063ba94a3151461067c578063c31c9c07146106a2578063c63d75b61461048f578063c6e6f592146106c957600080fd5b8063b3d7f6b914610643578063b460af9414610656578063ba0876521461066957600080fd5b80638da5cb5b146105a557806394bf804d146105b657806395d89b41146105c95780639f39910c146105d1578063a9059cbb14610609578063b2bf1ec01461061c57600080fd5b8063341a35eb1161025c5780636f26a71011610215578063715018a6116101ef578063715018a6146105365780637211dc361461054057806375bd2c5e1461056b578063791b98bc1461057e57600080fd5b80636f26a710146104ca57806370a08231146104f057806370bb45b31461051957600080fd5b8063341a35eb1461045657806338d52e0f14610469578063402d267d1461048f578063481c6a75146104a45780634cdad506146103425780636e553f65146104b757600080fd5b80630dfe1681116102ae5780630dfe16811461038b5780631414e0ce146103ca57806316f0115b146103fa57806318160ddd1461042157806323b872dd14610429578063313ce5671461043c57600080fd5b80630116bc28146102f657806301e1d1141461031757806306fdde031461032d57806307a2d13a14610342578063095ea7b3146103555780630a28a47714610378575b600080fd5b6102ff6103e881565b60405161ffff90911681526020015b60405180910390f35b61031f61081f565b60405190815260200161030e565b610335610aac565b60405161030e919061345c565b61031f61035036600461348f565b610b3e565b6103686103633660046134bd565b610b51565b604051901515815260200161030e565b61031f61038636600461348f565b610b69565b6103b27f000000000000000000000000000000000000000000000000000000000000000081565b6040516001600160a01b03909116815260200161030e565b6103dd6103d83660046134e9565b610b76565b604080519283526001600160801b0390911660208301520161030e565b6103b27f000000000000000000000000000000000000000000000000000000000000000081565b60025461031f565b610368610437366004613524565b610fed565b610444611013565b60405160ff909116815260200161030e565b61031f610464366004613573565b611044565b7f00000000000000000000000000000000000000000000000000000000000000006103b2565b61031f61049d3660046135c5565b5060001990565b6007546103b2906001600160a01b031681565b61031f6104c53660046135e2565b611286565b7f00000000000000000000000000000000000000000000000000000000000000006103b2565b61031f6104fe3660046135c5565b6001600160a01b031660009081526020819052604090205490565b6105216112ac565b6040805192835260208301919091520161030e565b61053e61140c565b005b600954610553906001600160801b031681565b6040516001600160801b03909116815260200161030e565b610521610579366004613627565b611420565b6103b27f000000000000000000000000000000000000000000000000000000000000000081565b6005546001600160a01b03166103b2565b61031f6105c43660046135e2565b6116a7565b6103356116c5565b6105e46105df3660046134e9565b6116d4565b604080516001600160801b03909416845260208401929092529082015260600161030e565b6103686106173660046134bd565b61195b565b60095461063090600160801b900460020b81565b60405160029190910b815260200161030e565b61031f61065136600461348f565b611969565b61031f610664366004613662565b611976565b61031f610677366004613662565b6119af565b7f00000000000000000000000000000000000000000000000000000000000000006103b2565b6103b27f000000000000000000000000000000000000000000000000000000000000000081565b61031f6106d736600461348f565b6119db565b61031f6106ea3660046135c5565b6119e8565b61031f60085481565b61053e6107063660046135c5565b611a0c565b6103b27f000000000000000000000000000000000000000000000000000000000000000081565b61031f6107403660046135c5565b611a5e565b61031f6107533660046136a4565b6001600160a01b03918216600090815260016020908152604080832093909416825291909152205490565b6107a57f000000000000000000000000000000000000000000000000000000000000000081565b60405162ffffff909116815260200161030e565b60095461063090600160981b900460020b81565b61053e6107db3660046135c5565b611a7c565b6009546107f790600160b01b900463ffffffff1681565b60405163ffffffff909116815260200161030e565b61053e61081a3660046136d2565b611aba565b6040516370a0823160e01b815230600482015260009081906001600160a01b037f000000000000000000000000000000000000000000000000000000000000000016906370a0823190602401602060405180830381865afa158015610888573d6000803e3d6000fd5b505050506040513d601f19601f820116820180604052508101906108ac91906136f8565b6040516370a0823160e01b81523060048201529091506000906001600160a01b037f000000000000000000000000000000000000000000000000000000000000000016906370a0823190602401602060405180830381865afa158015610916573d6000803e3d6000fd5b505050506040513d601f19601f8201168201806040525081019061093a91906136f8565b60095490915060009081906001600160801b031615610a3c5760007f00000000000000000000000000000000000000000000000000000000000000006001600160a01b0316633850c7bd6040518163ffffffff1660e01b815260040160e060405180830381865afa1580156109b3573d6000803e3d6000fd5b505050506040513d601f19601f820116820180604052508101906109d7919061373a565b505050505050905060006109f9600960109054906101000a900460020b611b3d565b600954909150600090610a1590600160981b900460020b611b3d565b600954909150610a33908490849084906001600160801b0316611f5d565b90955093505050505b6000806000851180610a4e5750600084115b15610a81576000610a5d611ff8565b90506060610a6b82886137e5565b901c92506060610a7b82876137e5565b901c9150505b8082610a8d85896137fc565b610a9791906137fc565b610aa191906137fc565b965050505050505090565b606060038054610abb9061380f565b80601f0160208091040260200160405190810160405280929190818152602001828054610ae79061380f565b8015610b345780601f10610b0957610100808354040283529160200191610b34565b820191906000526020600020905b815481529060010190602001808311610b1757829003601f168201915b5050505050905090565b6000610b4b8260006121f3565b92915050565b600033610b5f81858561222d565b5060019392505050565b6000610b4b82600161223f565b60075460009081906001600160a01b03163314610bae5760405162461bcd60e51b8152600401610ba590613849565b60405180910390fd5b610bb661226f565b60085415610bef5760405162461bcd60e51b815260206004820152600660248201526545584953545360d01b6044820152606401610ba5565b60007f00000000000000000000000000000000000000000000000000000000000000006001600160a01b0316633850c7bd6040518163ffffffff1660e01b815260040160e060405180830381865afa158015610c4f573d6000803e3d6000fd5b505050506040513d601f19601f82011682018060405250810190610c73919061373a565b505050505091505060007f00000000000000000000000000000000000000000000000000000000000000006001600160a01b031663d0c93a7c6040518163ffffffff1660e01b8152600401602060405180830381865afa158015610cdb573d6000803e3d6000fd5b505050506040513d601f19601f82011682018060405250810190610cff919061386a565b90506103e86000610d19610d138386613885565b84612299565b90506000610d30610d2a84876138aa565b856122cf565b9050610d7d7f00000000000000000000000000000000000000000000000000000000000000007f00000000000000000000000000000000000000000000000000000000000000008e61233a565b610dc87f00000000000000000000000000000000000000000000000000000000000000007f00000000000000000000000000000000000000000000000000000000000000008d61233a565b60006040518061016001604052807f00000000000000000000000000000000000000000000000000000000000000006001600160a01b031681526020017f00000000000000000000000000000000000000000000000000000000000000006001600160a01b031681526020017f000000000000000000000000000000000000000000000000000000000000000062ffffff1681526020018460020b81526020018360020b81526020018e81526020018d81526020018c81526020018b8152602001306001600160a01b031681526020018a81525090507f00000000000000000000000000000000000000000000000000000000000000006001600160a01b03166388316456826040518263ffffffff1660e01b8152600401610eea91906138cf565b6080604051808303816000875af1158015610f09573d6000803e3d6000fd5b505050506040513d601f19601f82011682018060405250810190610f2d9190613993565b505060088290556009805462ffffff868116600160981b0262ffffff60981b19918916600160801b0272ffffffffffffffffffffffffffffffffffffff199093166001600160801b03861690811793909317919091161790915560408051918252600287810b602084015286900b90820152919950975088907fa585dd7d6b9381c365319fa2302ea165a13cb98b314db7b55f44b773e2fdd9c29060600160405180910390a2505050505050610fe36001600655565b9550959350505050565b600033610ffb8582856124ae565b611006858585612513565b60019150505b9392505050565b600061103f817f00000000000000000000000000000000000000000000000000000000000000006139d1565b905090565b600061104e612572565b61105661226f565b600086611083577f00000000000000000000000000000000000000000000000000000000000000006110a5565b7f00000000000000000000000000000000000000000000000000000000000000005b90506000876110d4577f00000000000000000000000000000000000000000000000000000000000000006110f6565b7f00000000000000000000000000000000000000000000000000000000000000005b9050611123827f00000000000000000000000000000000000000000000000000000000000000008961233a565b60408051610100810182526001600160a01b038085168252838116602083015262ffffff7f000000000000000000000000000000000000000000000000000000000000000016828401523060608301526080820187905260a082018a905260c0820189905287811660e0830152915163414bf38960e01b815290917f0000000000000000000000000000000000000000000000000000000000000000169063414bf389906111d59084906004016139ea565b6020604051808303816000875af11580156111f4573d6000803e3d6000fd5b505050506040513d601f19601f8201168201806040525081019061121891906136f8565b9350816001600160a01b0316836001600160a01b03167f25f1d03755df23c30e25db2dbd3891e31ce084bdfbfc46f9fe5e446ee5f9b2d48a87604051611268929190918252602082015260400190565b60405180910390a350505061127d6001600655565b95945050505050565b60006000196000611296856119db565b90506112a43385878461259f565b949350505050565b60075460009081906001600160a01b031633146112db5760405162461bcd60e51b8152600401610ba590613849565b6112e361226f565b6008546000036113055760405162461bcd60e51b8152600401610ba590613a74565b6040805160808101825260085481523060208201526001600160801b038183018190526060820152905163fc6f786560e01b81527f00000000000000000000000000000000000000000000000000000000000000006001600160a01b03169063fc6f786590611378908490600401613a94565b60408051808303816000875af1158015611396573d6000803e3d6000fd5b505050506040513d601f19601f820116820180604052508101906113ba9190613ad7565b6008546040805184815260208101849052939650919450917f3dddd974134793c524aaece0b9af4dd610a213cd4317cf0cb12c3613eafea8cd910160405180910390a2506114086001600655565b9091565b611414612572565b61141e6000612631565b565b60075460009081906001600160a01b0316331461144f5760405162461bcd60e51b8152600401610ba590613849565b61145761226f565b6008546000036114795760405162461bcd60e51b8152600401610ba590613a74565b6040805160a08101825260085481526001600160801b038816602082015280820187905260608101869052608081018590529051630624e65f60e11b81526001600160a01b037f00000000000000000000000000000000000000000000000000000000000000001690630c49ccbe906114f6908490600401613afb565b60408051808303816000875af1158015611514573d6000803e3d6000fd5b505050506040513d601f19601f820116820180604052508101906115389190613ad7565b6040805160808101825260085481523060208201526001600160801b038183018190526060820152905163fc6f786560e01b8152929550909350907f00000000000000000000000000000000000000000000000000000000000000006001600160a01b03169063fc6f7865906115b2908490600401613a94565b60408051808303816000875af11580156115d0573d6000803e3d6000fd5b505050506040513d601f19601f820116820180604052508101906115f49190613ad7565b5050600980548991906000906116149084906001600160801b0316613b3e565b92506101000a8154816001600160801b0302191690836001600160801b031602179055506008547f2222b1b1f55330f28434a2cf3bd29ee12eda8d19767ba0b1dfd70ec6a7e3fb4b89868660405161168a939291906001600160801b039390931683526020830191909152604082015260600190565b60405180910390a2505061169e6001600655565b94509492505050565b600060001960006116b785611969565b90506112a43385838861259f565b606060048054610abb9061380f565b600754600090819081906001600160a01b031633146117055760405162461bcd60e51b8152600401610ba590613849565b61170d61226f565b60085460000361172f5760405162461bcd60e51b8152600401610ba590613a74565b61177a7f00000000000000000000000000000000000000000000000000000000000000007f00000000000000000000000000000000000000000000000000000000000000008a61233a565b6117c57f00000000000000000000000000000000000000000000000000000000000000007f00000000000000000000000000000000000000000000000000000000000000008961233a565b6040805160c0810182526008548152602081018a81528183018a8152606083018a8152608084018a815260a085018a8152955163219f5d1760e01b8152855160048201529351602485015291516044840152516064830152516084820152915160a4830152907f00000000000000000000000000000000000000000000000000000000000000006001600160a01b03169063219f5d179060c4016060604051808303816000875af115801561187e573d6000803e3d6000fd5b505050506040513d601f19601f820116820180604052508101906118a29190613b65565b60098054939750919550935085916000906118c79084906001600160801b0316613b9c565b92506101000a8154816001600160801b0302191690836001600160801b031602179055506008547f84e54e6e3ce147ce54f475be42eaeabf47d9d784a1f3fc30594878b746633b3a85858560405161193d939291906001600160801b039390931683526020830191909152604082015260600190565b60405180910390a2506119506001600655565b955095509592505050565b600033610b5f818585612513565b6000610b4b8260016121f3565b600061198061226f565b600061198b85610b69565b90506119978582612683565b6119a2858585612cad565b91505061100c6001600655565b60006119b961226f565b60006119c485610b3e565b90506119d08186612683565b6119a2858585612cfc565b6000610b4b82600061223f565b6001600160a01b038116600090815260208190526040812054610b4b9060006121f3565b611a14612572565b600780546001600160a01b0319166001600160a01b0383169081179091556040517f2c1c11af44aa5608f1dca38c00275c30ea091e02417d36e70e9a1538689c433d90600090a250565b6001600160a01b038116600090815260208190526040812054610b4b565b611a84612572565b6001600160a01b038116611aae57604051631e4fbdf760e01b815260006004820152602401610ba5565b611ab781612631565b50565b611ac2612572565b603c8163ffffffff1610158015611ae25750620151808163ffffffff1611155b611b175760405162461bcd60e51b81526020600482015260066024820152651411549253d160d21b6044820152606401610ba5565b6009805463ffffffff909216600160b01b0263ffffffff60b01b19909216919091179055565b6000600282900b620d89e7198112801590611b675750611b60620d89e719613bbc565b60020b8113155b611b975760405162461bcd60e51b81526020600482015260016024820152601560fa1b6044820152606401610ba5565b6000808212611ba65781611baf565b611baf82613bde565b9050600081600116600003611bc857600160801b611bda565b6ffffcb933bd6fad37aa2d162d1a5940015b70ffffffffffffffffffffffffffffffffff1690506002821615611c19576080611c14826ffff97272373d413259a46990580e213a6137e5565b901c90505b6004821615611c43576080611c3e826ffff2e50f5f656932ef12357cf3c7fdcc6137e5565b901c90505b6008821615611c6d576080611c68826fffe5caca7e10e4e61c3624eaa0941cd06137e5565b901c90505b6010821615611c97576080611c92826fffcb9843d60f6159c9db58835c9266446137e5565b901c90505b6020821615611cc1576080611cbc826fff973b41fa98c081472e6896dfb254c06137e5565b901c90505b6040821615611ceb576080611ce6826fff2ea16466c96a3843ec78b326b528616137e5565b901c90505b6080821615611d15576080611d10826ffe5dee046a99a2a811c461f1969c30536137e5565b901c90505b610100821615611d40576080611d3b826ffcbe86c7900a88aedcffc83b479aa3a46137e5565b901c90505b610200821615611d6b576080611d66826ff987a7253ac413176f2b074cf7815e546137e5565b901c90505b610400821615611d96576080611d91826ff3392b0822b70005940c7a398e4b70f36137e5565b901c90505b610800821615611dc1576080611dbc826fe7159475a2c29b7443b29c7fa6e889d96137e5565b901c90505b611000821615611dec576080611de7826fd097f3bdfd2022b8845ad8f792aa58256137e5565b901c90505b612000821615611e17576080611e12826fa9f746462d870fdf8a65dc1f90e061e56137e5565b901c90505b614000821615611e42576080611e3d826f70d869a156d2a1b890bb3df62baf32f76137e5565b901c90505b618000821615611e6d576080611e68826f31be135f97d08fd981231505542fcfa66137e5565b901c90505b62010000821615611e99576080611e94826f09aa508b5b7a84e1c677de54f3e99bc96137e5565b901c90505b62020000821615611ec4576080611ebf826e5d6af8dedb81196699c329225ee6046137e5565b901c90505b62040000821615611eee576080611ee9826d2216e584f5fa1ea926041bedfe986137e5565b901c90505b62080000821615611f16576080611f11826b048a170391f7dc42444e8fa26137e5565b901c90505b6000831315611f2e57611f2b81600019613c10565b90505b611f3d64010000000082613c24565b15611f49576001611f4c565b60005b61127d9060ff16602083901c6137fc565b600080836001600160a01b0316856001600160a01b03161115611f7e579293925b846001600160a01b0316866001600160a01b031611611fa957611fa2858585612d4b565b915061169e565b836001600160a01b0316866001600160a01b03161015611fe257611fce868585612d4b565b9150611fdb858785612dc3565b905061169e565b611fed858585612dc3565b905094509492505050565b60408051600280825260608201835260009283929190602083019080368337019050509050600960169054906101000a900463ffffffff168160008151811061204357612043613c4e565b602002602001019063ffffffff16908163ffffffff168152505060008160018151811061207257612072613c4e565b63ffffffff9092166020928302919091019091015260405163883bdbfd60e01b81526000906001600160a01b037f0000000000000000000000000000000000000000000000000000000000000000169063883bdbfd906120d6908590600401613c64565b600060405180830381865afa1580156120f3573d6000803e3d6000fd5b505050506040513d6000823e601f3d908101601f1916820160405261211b9190810190613d77565b50905060008160008151811061213357612133613c4e565b60200260200101518260018151811061214e5761214e613c4e565b60200260200101516121609190613e43565b60095490915060009061218090600160b01b900463ffffffff1683613e70565b905060008260060b1280156121b057506009546121aa90600160b01b900463ffffffff1683613eae565b60060b15155b156121c357806121bf81613ed0565b9150505b60006121ce82611b3d565b905060006121e56001600160a01b038316806137e5565b60601c979650505050505050565b600061100c61220061081f565b61220b9060016137fc565b6122176000600a613fd7565b60025461222491906137fc565b85919085612df7565b61223a8383836001612e46565b505050565b600061100c61224f82600a613fd7565b60025461225c91906137fc565b61226461081f565b6122249060016137fc565b60026006540361229257604051633ee5aeb560e01b815260040160405180910390fd5b6002600655565b6000806122a68385613fe6565b6122b09085613885565b9050620d89e719600282900b121561100c57620d89e719915050610b4b565b6000806122dc8385613fe6565b60020b15612307576122ee8385613fe6565b6122f89084613885565b61230290856138aa565b612309565b835b9050612318620d89e719613bbc565b60020b8160020b131561100c57612332620d89e719613bbc565b915050610b4b565b8060000361234757505050565b604051636eb1769f60e11b81523060048201526001600160a01b03838116602483015282919085169063dd62ed3e90604401602060405180830381865afa158015612396573d6000803e3d6000fd5b505050506040513d601f19601f820116820180604052508101906123ba91906136f8565b101561223a5760405163095ea7b360e01b81526001600160a01b0383811660048301526000602483015284169063095ea7b3906044016020604051808303816000875af115801561240f573d6000803e3d6000fd5b505050506040513d601f19601f820116820180604052508101906124339190614008565b5060405163095ea7b360e01b81526001600160a01b038381166004830152600019602483015284169063095ea7b3906044016020604051808303816000875af1158015612484573d6000803e3d6000fd5b505050506040513d601f19601f820116820180604052508101906124a89190614008565b50505050565b6001600160a01b0383811660009081526001602090815260408083209386168352929052205460001981146124a8578181101561250457828183604051637dc7a0d960e11b8152600401610ba593929190613a53565b6124a884848484036000612e46565b6001600160a01b03831661253d57604051634b637e8f60e11b815260006004820152602401610ba5565b6001600160a01b0382166125675760405163ec442f0560e01b815260006004820152602401610ba5565b61223a838383612f0d565b6005546001600160a01b0316331461141e5760405163118cdaa760e01b8152336004820152602401610ba5565b6125cb7f0000000000000000000000000000000000000000000000000000000000000000853085613024565b6125d5838261308b565b826001600160a01b0316846001600160a01b03167fdcbc1c05240f31ff3ad067ef1ee35ce4997762752e3a095284754544f4c709d78484604051612623929190918252602082015260400190565b60405180910390a350505050565b600580546001600160a01b038381166001600160a01b0319831681179093556040519116919082907f8be0079c531659141344cd1fd0a4f28419497f9722a3daafe3b4186f6b6457e090600090a35050565b6040516370a0823160e01b81523060048201526000907f00000000000000000000000000000000000000000000000000000000000000006001600160a01b0316906370a0823190602401602060405180830381865afa1580156126ea573d6000803e3d6000fd5b505050506040513d601f19601f8201168201806040525081019061270e91906136f8565b905082811061271c57505050565b6009546001600160801b03161561293757600061273860025490565b9050801561293557600954600090829061275c9086906001600160801b03166137e5565b6127669190613c10565b90506001600160801b03811615612933576040805160a08101825260085481526001600160801b0383166020820152600081830181905260608201524260808201529051630624e65f60e11b81526001600160a01b037f00000000000000000000000000000000000000000000000000000000000000001690630c49ccbe906127f3908490600401613afb565b60408051808303816000875af1158015612811573d6000803e3d6000fd5b505050506040513d601f19601f820116820180604052508101906128359190613ad7565b50506040805160808101825260085481523060208201526001600160801b038183018190526060820152905163fc6f786560e01b81527f00000000000000000000000000000000000000000000000000000000000000006001600160a01b03169063fc6f7865906128aa908490600401613a94565b60408051808303816000875af11580156128c8573d6000803e3d6000fd5b505050506040513d601f19601f820116820180604052508101906128ec9190613ad7565b50506009805484919060009061290c9084906001600160801b0316613b3e565b92506101000a8154816001600160801b0302191690836001600160801b0316021790555050505b505b505b6040516370a0823160e01b81523060048201527f00000000000000000000000000000000000000000000000000000000000000006001600160a01b0316906370a0823190602401602060405180830381865afa15801561299b573d6000803e3d6000fd5b505050506040513d601f19601f820116820180604052508101906129bf91906136f8565b905082811015612bdf576040516370a0823160e01b81523060048201526000907f00000000000000000000000000000000000000000000000000000000000000006001600160a01b0316906370a0823190602401602060405180830381865afa158015612a30573d6000803e3d6000fd5b505050506040513d601f19601f82011682018060405250810190612a5491906136f8565b90508015612bdd57612aa77f00000000000000000000000000000000000000000000000000000000000000007f00000000000000000000000000000000000000000000000000000000000000008361233a565b60408051610100810182526001600160a01b037f0000000000000000000000000000000000000000000000000000000000000000811682527f00000000000000000000000000000000000000000000000000000000000000008116602083015262ffffff7f0000000000000000000000000000000000000000000000000000000000000000168284015230606083015242608083015260a08201849052600060c0830181905260e0830152915163414bf38960e01b815290917f0000000000000000000000000000000000000000000000000000000000000000169063414bf38990612b979084906004016139ea565b6020604051808303816000875af1158015612bb6573d6000803e3d6000fd5b505050506040513d601f19601f82011682018060405250810190612bda91906136f8565b50505b505b6040516370a0823160e01b815230600482015283907f00000000000000000000000000000000000000000000000000000000000000006001600160a01b0316906370a0823190602401602060405180830381865afa158015612c45573d6000803e3d6000fd5b505050506040513d601f19601f82011682018060405250810190612c6991906136f8565b101561223a5760405162461bcd60e51b8152602060048201526013602482015272494e53554646494349454e545f41535345545360681b6044820152606401610ba5565b600080612cb9836119e8565b905080851115612ce257828582604051633fa733bb60e21b8152600401610ba593929190613a53565b6000612ced86610b69565b905061127d33868689856130c5565b600080612d0883611a5e565b905080851115612d3157828582604051632e52afbb60e21b8152600401610ba593929190613a53565b6000612d3c86610b3e565b905061127d338686848a6130c5565b600080612d588585614025565b612d84906001600160a01b03166fffffffffffffffffffffffffffffffff60601b606086901b16613c10565b9050612d9c6001600160a01b038086169087166137e5565b612da68686614025565b612db9906001600160a01b0316836137e5565b61127d9190613c10565b60006060612dd18585614025565b612ded906001600160a01b03166001600160801b0385166137e5565b901c949350505050565b600080612e05868686613185565b9050612e1083613249565b8015612e2c575060008480612e2757612e27613bfa565b868809115b1561127d57612e3c6001826137fc565b9695505050505050565b6001600160a01b038416612e705760405163e602df0560e01b815260006004820152602401610ba5565b6001600160a01b038316612e9a57604051634a1406b160e11b815260006004820152602401610ba5565b6001600160a01b03808516600090815260016020908152604080832093871683529290522082905580156124a857826001600160a01b0316846001600160a01b03167f8c5be1e5ebec7d5bd14f71427d1e84f3dd0314c0f7b2291e5b200ac8c7c3b9258460405161262391815260200190565b6001600160a01b038316612f38578060026000828254612f2d91906137fc565b90915550612f979050565b6001600160a01b03831660009081526020819052604090205481811015612f785783818360405163391434e360e21b8152600401610ba593929190613a53565b6001600160a01b03841660009081526020819052604090209082900390555b6001600160a01b038216612fb357600280548290039055612fd2565b6001600160a01b03821660009081526020819052604090208054820190555b816001600160a01b0316836001600160a01b03167fddf252ad1be2c89b69c2b068fc378daa952ba7f163c4a11628f55a4df523b3ef8360405161301791815260200190565b60405180910390a3505050565b6040516001600160a01b0384811660248301528381166044830152606482018390526124a89186918216906323b872dd906084015b604051602081830303815290604052915060e01b6020820180516001600160e01b038381831617835250505050613276565b6001600160a01b0382166130b55760405163ec442f0560e01b815260006004820152602401610ba5565b6130c160008383612f0d565b5050565b826001600160a01b0316856001600160a01b0316146130e9576130e98386836124ae565b6130f383826132d9565b61311e7f0000000000000000000000000000000000000000000000000000000000000000858461330f565b826001600160a01b0316846001600160a01b0316866001600160a01b03167ffbde797d201c681b91056529119e0b02407c7bb96a4a2c75c01fc9667232c8db8585604051613176929190918252602082015260400190565b60405180910390a45050505050565b60008383028160001985870982811083820303915050806000036131bc578382816131b2576131b2613bfa565b049250505061100c565b8084116131dc5760405163227bc15360e01b815260040160405180910390fd5b6000848688096000868103871696879004966002600389028118808a02820302808a02820302808a02820302808a02820302808a02820302808a02909103029181900381900460010186841190950394909402919094039290920491909117919091029150509392505050565b6000600282600381111561325f5761325f614045565b613269919061405b565b60ff166001149050919050565b600061328b6001600160a01b03841683613340565b905080516000141580156132b05750808060200190518101906132ae9190614008565b155b1561223a57604051635274afe760e01b81526001600160a01b0384166004820152602401610ba5565b6001600160a01b03821661330357604051634b637e8f60e11b815260006004820152602401610ba5565b6130c182600083612f0d565b6040516001600160a01b0383811660248301526044820183905261223a91859182169063a9059cbb90606401613059565b606061100c8383600084600080856001600160a01b03168486604051613366919061407d565b60006040518083038185875af1925050503d80600081146133a3576040519150601f19603f3d011682016040523d82523d6000602084013e6133a8565b606091505b5091509150612e3c8683836060826133c8576133c38261340f565b61100c565b81511580156133df57506001600160a01b0384163b155b1561340857604051639996b31560e01b81526001600160a01b0385166004820152602401610ba5565b508061100c565b80511561341f5780518082602001fd5b604051630a12f52160e11b815260040160405180910390fd5b60005b8381101561345357818101518382015260200161343b565b50506000910152565b602081526000825180602084015261347b816040850160208701613438565b601f01601f19169190910160400192915050565b6000602082840312156134a157600080fd5b5035919050565b6001600160a01b0381168114611ab757600080fd5b600080604083850312156134d057600080fd5b82356134db816134a8565b946020939093013593505050565b600080600080600060a0868803121561350157600080fd5b505083359560208501359550604085013594606081013594506080013592509050565b60008060006060848603121561353957600080fd5b8335613544816134a8565b92506020840135613554816134a8565b929592945050506040919091013590565b8015158114611ab757600080fd5b600080600080600060a0868803121561358b57600080fd5b853561359681613565565b9450602086013593506040860135925060608601356135b4816134a8565b949793965091946080013592915050565b6000602082840312156135d757600080fd5b813561100c816134a8565b600080604083850312156135f557600080fd5b823591506020830135613607816134a8565b809150509250929050565b6001600160801b0381168114611ab757600080fd5b6000806000806080858703121561363d57600080fd5b843561364881613612565b966020860135965060408601359560600135945092505050565b60008060006060848603121561367757600080fd5b833592506020840135613689816134a8565b91506040840135613699816134a8565b809150509250925092565b600080604083850312156136b757600080fd5b82356136c2816134a8565b91506020830135613607816134a8565b6000602082840312156136e457600080fd5b813563ffffffff8116811461100c57600080fd5b60006020828403121561370a57600080fd5b5051919050565b8051600281900b811461372357600080fd5b919050565b805161ffff8116811461372357600080fd5b600080600080600080600060e0888a03121561375557600080fd5b8751613760816134a8565b965061376e60208901613711565b955061377c60408901613728565b945061378a60608901613728565b935061379860808901613728565b925060a088015160ff811681146137ae57600080fd5b60c08901519092506137bf81613565565b8091505092959891949750929550565b634e487b7160e01b600052601160045260246000fd5b8082028115828204841417610b4b57610b4b6137cf565b80820180821115610b4b57610b4b6137cf565b600181811c9082168061382357607f821691505b60208210810361384357634e487b7160e01b600052602260045260246000fd5b50919050565b60208082526007908201526626a0a720a3a2a960c91b604082015260600190565b60006020828403121561387c57600080fd5b61100c82613711565b600282810b9082900b03627fffff198112627fffff82131715610b4b57610b4b6137cf565b600281810b9083900b01627fffff8113627fffff1982121715610b4b57610b4b6137cf565b81516001600160a01b03168152610160810160208301516138fb60208401826001600160a01b03169052565b506040830151613912604084018262ffffff169052565b506060830151613927606084018260020b9052565b50608083015161393c608084018260020b9052565b5060a083015160a083015260c083015160c083015260e083015160e083015261010080840151818401525061012080840151613982828501826001600160a01b03169052565b505061014092830151919092015290565b600080600080608085870312156139a957600080fd5b8451935060208501516139bb81613612565b6040860151606090960151949790965092505050565b60ff8181168382160190811115610b4b57610b4b6137cf565b81516001600160a01b03908116825260208084015182169083015260408084015162ffffff16908301526060808401518216908301526080808401519083015260a0838101519083015260c0808401519083015260e09283015116918101919091526101000190565b6001600160a01b039390931683526020830191909152604082015260600190565b6020808252600690820152654e4f5f504f5360d01b604082015260600190565b815181526020808301516001600160a01b0316908201526040808301516001600160801b0390811691830191909152606092830151169181019190915260800190565b60008060408385031215613aea57600080fd5b505080516020909101519092909150565b600060a082019050825182526001600160801b03602084015116602083015260408301516040830152606083015160608301526080830151608083015292915050565b6001600160801b03828116828216039080821115613b5e57613b5e6137cf565b5092915050565b600080600060608486031215613b7a57600080fd5b8351613b8581613612565b602085015160409095015190969495509392505050565b6001600160801b03818116838216019080821115613b5e57613b5e6137cf565b60008160020b627fffff198103613bd557613bd56137cf565b60000392915050565b6000600160ff1b8201613bf357613bf36137cf565b5060000390565b634e487b7160e01b600052601260045260246000fd5b600082613c1f57613c1f613bfa565b500490565b600082613c3357613c33613bfa565b500690565b634e487b7160e01b600052604160045260246000fd5b634e487b7160e01b600052603260045260246000fd5b6020808252825182820181905260009190848201906040850190845b81811015613ca257835163ffffffff1683529284019291840191600101613c80565b50909695505050505050565b604051601f8201601f1916810167ffffffffffffffff81118282101715613cd757613cd7613c38565b604052919050565b600067ffffffffffffffff821115613cf957613cf9613c38565b5060051b60200190565b600082601f830112613d1457600080fd5b81516020613d29613d2483613cdf565b613cae565b82815260059290921b84018101918181019086841115613d4857600080fd5b8286015b84811015613d6c578051613d5f816134a8565b8352918301918301613d4c565b509695505050505050565b60008060408385031215613d8a57600080fd5b825167ffffffffffffffff80821115613da257600080fd5b818501915085601f830112613db657600080fd5b81516020613dc6613d2483613cdf565b82815260059290921b84018101918181019089841115613de557600080fd5b948201945b83861015613e135785518060060b8114613e045760008081fd5b82529482019490820190613dea565b91880151919650909350505080821115613e2c57600080fd5b50613e3985828601613d03565b9150509250929050565b600682810b9082900b03667fffffffffffff198112667fffffffffffff82131715610b4b57610b4b6137cf565b60008160060b8360060b80613e8757613e87613bfa565b667fffffffffffff19821460001982141615613ea557613ea56137cf565b90059392505050565b60008260060b80613ec157613ec1613bfa565b808360060b0791505092915050565b60008160020b627fffff198103613ee957613ee96137cf565b6000190192915050565b600181815b80851115613f2e578160001904821115613f1457613f146137cf565b80851615613f2157918102915b93841c9390800290613ef8565b509250929050565b600082613f4557506001610b4b565b81613f5257506000610b4b565b8160018114613f685760028114613f7257613f8e565b6001915050610b4b565b60ff841115613f8357613f836137cf565b50506001821b610b4b565b5060208310610133831016604e8410600b8410161715613fb1575081810a610b4b565b613fbb8383613ef3565b8060001904821115613fcf57613fcf6137cf565b029392505050565b600061100c60ff841683613f36565b60008260020b80613ff957613ff9613bfa565b808360020b0791505092915050565b60006020828403121561401a57600080fd5b815161100c81613565565b6001600160a01b03828116828216039080821115613b5e57613b5e6137cf565b634e487b7160e01b600052602160045260246000fd5b600060ff83168061406e5761406e613bfa565b8060ff84160691505092915050565b6000825161408f818460208701613438565b919091019291505056fea2646970667358221220ea84fa0f08da23913c1777922690d88c7393e6889749424cff7828cb44a0ccac64736f6c63430008140033",
  "devdoc": {
    "errors": {
      "AddressEmptyCode(address)": [
        {
          "details": "There's no code at `target` (it is not a contract)."
        }
      ],
      "AddressInsufficientBalance(address)": [
        {
          "details": "The ETH balance of the account is not enough to perform the operation."
        }
      ],
      "ERC20InsufficientAllowance(address,uint256,uint256)": [
        {
          "details": "Indicates a failure with the `spender`s `allowance`. Used in transfers.",
          "params": {
            "allowance": "Amount of tokens a `spender` is allowed to operate with.",
            "needed": "Minimum amount required to perform a transfer.",
            "spender": "Address that may be allowed to operate on tokens without being their owner."
          }
        }
      ],
      "ERC20InsufficientBalance(address,uint256,uint256)": [
        {
          "details": "Indicates an error related to the current `balance` of a `sender`. Used in transfers.",
          "params": {
            "balance": "Current balance for the interacting account.",
            "needed": "Minimum amount required to perform a transfer.",
            "sender": "Address whose tokens are being transferred."
          }
        }
      ],
      "ERC20InvalidApprover(address)": [
        {
          "details": "Indicates a failure with the `approver` of a token to be approved. Used in approvals.",
          "params": {
            "approver": "Address initiating an approval operation."
          }
        }
      ],
      "ERC20InvalidReceiver(address)": [
        {
          "details": "Indicates a failure with the token `receiver`. Used in transfers.",
          "params": {
            "receiver": "Address to which tokens are being transferred."
          }
        }
      ],
      "ERC20InvalidSender(address)": [
        {
          "details": "Indicates a failure with the token `sender`. Used in transfers.",
          "params": {
            "sender": "Address whose tokens are being transferred."
          }
        }
      ],
      "ERC20InvalidSpender(address)": [
        {
          "details": "Indicates a failure with the `spender` to be approved. Used in approvals.",
          "params": {
            "spender": "Address that may be allowed to operate on tokens without being their owner."
          }
        }
      ],
      "ERC4626ExceededMaxDeposit(address,uint256,uint256)": [
        {
          "details": "Attempted to deposit more assets than the max amount for `receiver`."
        }
      ],
      "ERC4626ExceededMaxMint(address,uint256,uint256)": [
        {
          "details": "Attempted to mint more shares than the max amount for `receiver`."
        }
      ],
      "ERC4626ExceededMaxRedeem(address,uint256,uint256)": [
        {
          "details": "Attempted to redeem more shares than the max amount for `receiver`."
        }
      ],
      "ERC4626ExceededMaxWithdraw(address,uint256,uint256)": [
        {
          "details": "Attempted to withdraw more assets than the max amount for `receiver`."
        }
      ],
      "FailedInnerCall()": [
        {
          "details": "A call to an address target failed. The target may have reverted."
        }
      ],
      "MathOverflowedMulDiv()": [
        {
          "details": "Muldiv operation overflow."
        }
      ],
      "OwnableInvalidOwner(address)": [
        {
          "details": "The owner is not a valid owner account. (eg. `address(0)`)"
        }
      ],
      "OwnableUnauthorizedAccount(address)": [
        {
          "details": "The caller account is not authorized to perform an operation."
        }
      ],
      "ReentrancyGuardReentrantCall()": [
        {
          "details": "Unauthorized reentrant call."
        }
      ],
      "SafeERC20FailedOperation(address)": [
        {
          "details": "An operation with an ERC20 token failed."
        }
      ]
    },
    "events": {
      "Approval(address,address,uint256)": {
        "details": "Emitted when the allowance of a `spender` for an `owner` is set by a call to {approve}. `value` is the new allowance."
      },
      "Transfer(address,address,uint256)": {
        "details": "Emitted when `value` tokens are moved from one account (`from`) to another (`to`). Note that `value` may be zero."
      }
    },
    "kind": "dev",
    "methods": {
      "allowance(address,address)": {
        "details": "See {IERC20-allowance}."
      },
      "approve(address,uint256)": {
        "details": "See {IERC20-approve}. NOTE: If `value` is the maximum `uint256`, the allowance is not updated on `transferFrom`. This is semantically equivalent to an infinite approval. Requirements: - `spender` cannot be the zero address."
      },
      "asset()": {
        "details": "See {IERC4626-asset}. "
      },
      "balanceOf(address)": {
        "details": "See {IERC20-balanceOf}."
      },
      "convertToAssets(uint256)": {
        "details": "See {IERC4626-convertToAssets}. "
      },
      "convertToShares(uint256)": {
        "details": "See {IERC4626-convertToShares}. "
      },
      "decimals()": {
        "details": "Decimals are computed by adding the decimal offset on top of the underlying asset's decimals. This \"original\" value is cached during construction of the vault contract. If this read operation fails (e.g., the asset has not been created yet), a default of 18 is used to represent the underlying asset's decimals. See {IERC20Metadata-decimals}."
      },
      "deposit(uint256,address)": {
        "details": "See {IERC4626-deposit}. "
      },
      "maxDeposit(address)": {
        "details": "See {IERC4626-maxDeposit}. "
      },
      "maxMint(address)": {
        "details": "See {IERC4626-maxMint}. "
      },
      "maxRedeem(address)": {
        "details": "See {IERC4626-maxRedeem}. "
      },
      "maxWithdraw(address)": {
        "details": "See {IERC4626-maxWithdraw}. "
      },
      "mint(uint256,address)": {
        "details": "See {IERC4626-mint}. As opposed to {deposit}, minting is allowed even if the vault is in a state where the price of a share is zero. In this case, the shares will be minted without requiring any assets to be deposited."
      },
      "name()": {
        "details": "Returns the name of the token."
      },
      "owner()": {
        "details": "Returns the address of the current owner."
      },
      "previewDeposit(uint256)": {
        "details": "See {IERC4626-previewDeposit}. "
      },
      "previewMint(uint256)": {
        "details": "See {IERC4626-previewMint}. "
      },
      "previewRedeem(uint256)": {
        "details": "See {IERC4626-previewRedeem}. "
      },
      "previewWithdraw(uint256)": {
        "details": "See {IERC4626-previewWithdraw}. "
      },
      "redeem(uint256,address,address)": {
        "details": "See {IERC4626-redeem}. "
      },
      "renounceOwnership()": {
        "details": "Leaves the contract without owner. It will not be possible to call `onlyOwner` functions. Can only be called by the current owner. NOTE: Renouncing ownership will leave the contract without an owner, thereby disabling any functionality that is only available to the owner."
      },
      "symbol()": {
        "details": "Returns the symbol of the token, usually a shorter version of the name."
      },
      "totalAssets()": {
        "details": "See {IERC4626-totalAssets}. "
      },
      "totalSupply()": {
        "details": "See {IERC20-totalSupply}."
      },
      "transfer(address,uint256)": {
        "details": "See {IERC20-transfer}. Requirements: - `to` cannot be the zero address. - the caller must have a balance of at least `value`."
      },
      "transferFrom(address,address,uint256)": {
        "details": "See {IERC20-transferFrom}. Emits an {Approval} event indicating the updated allowance. This is not required by the EIP. See the note at the beginning of {ERC20}. NOTE: Does not update the allowance if the current allowance is the maximum `uint256`. Requirements: - `from` and `to` cannot be the zero address. - `from` must have a balance of at least `value`. - the caller must have allowance for ``from``'s tokens of at least `value`."
      },
      "transferOwnership(address)": {
        "details": "Transfers ownership of the contract to a new account (`newOwner`). Can only be called by the current owner."
      },
      "withdraw(uint256,address,address)": {
        "details": "See {IERC4626-withdraw}. "
      }
    },
    "version": 1
  },
  "userdoc": {
    "kind": "user",
    "methods": {},
    "version": 1
  },
  "storageLayout": {
    "storage": [
      {
        "astId": 477,
        "contract": "contracts/DragonSwapLpProviderVault.sol:DragonSwapLpProviderVault",
        "label": "_balances",
        "offset": 0,
        "slot": "0",
        "type": "t_mapping(t_address,t_uint256)"
      },
      {
        "astId": 483,
        "contract": "contracts/DragonSwapLpProviderVault.sol:DragonSwapLpProviderVault",
        "label": "_allowances",
        "offset": 0,
        "slot": "1",
        "type": "t_mapping(t_address,t_mapping(t_address,t_uint256))"
      },
      {
        "astId": 485,
        "contract": "contracts/DragonSwapLpProviderVault.sol:DragonSwapLpProviderVault",
        "label": "_totalSupply",
        "offset": 0,
        "slot": "2",
        "type": "t_uint256"
      },
      {
        "astId": 487,
        "contract": "contracts/DragonSwapLpProviderVault.sol:DragonSwapLpProviderVault",
        "label": "_name",
        "offset": 0,
        "slot": "3",
        "type": "t_string_storage"
      },
      {
        "astId": 489,
        "contract": "contracts/DragonSwapLpProviderVault.sol:DragonSwapLpProviderVault",
        "label": "_symbol",
        "offset": 0,
        "slot": "4",
        "type": "t_string_storage"
      },
      {
        "astId": 8,
        "contract": "contracts/DragonSwapLpProviderVault.sol:DragonSwapLpProviderVault",
        "label": "_owner",
        "offset": 0,
        "slot": "5",
        "type": "t_address"
      },
      {
        "astId": 2378,
        "contract": "contracts/DragonSwapLpProviderVault.sol:DragonSwapLpProviderVault",
        "label": "_status",
        "offset": 0,
        "slot": "6",
        "type": "t_uint256"
      },
      {
        "astId": 4868,
        "contract": "contracts/DragonSwapLpProviderVault.sol:DragonSwapLpProviderVault",
        "label": "manager",
        "offset": 0,
        "slot": "7",
        "type": "t_address"
      },
      {
        "astId": 4870,
        "contract": "contracts/DragonSwapLpProviderVault.sol:DragonSwapLpProviderVault",
        "label": "positionTokenId",
        "offset": 0,
        "slot": "8",
        "type": "t_uint256"
      },
      {
        "astId": 4872,
        "contract": "contracts/DragonSwapLpProviderVault.sol:DragonSwapLpProviderVault",
        "label": "positionLiquidity",
        "offset": 0,
        "slot": "9",
        "type": "t_uint128"
      },
      {
        "astId": 4874,
        "contract": "contracts/DragonSwapLpProviderVault.sol:DragonSwapLpProviderVault",
        "label": "positionTickLower",
        "offset": 16,
        "slot": "9",
        "type": "t_int24"
      },
      {
        "astId": 4876,
        "contract": "contracts/DragonSwapLpProviderVault.sol:DragonSwapLpProviderVault",
        "label": "positionTickUpper",
        "offset": 19,
        "slot": "9",
        "type": "t_int24"
      },
      {
        "astId": 4879,
        "contract": "contracts/DragonSwapLpProviderVault.sol:DragonSwapLpProviderVault",
        "label": "twapPeriod",
        "offset": 22,
        "slot": "9",
        "type": "t_uint32"
      }
    ],
    "types": {
      "t_address": {
        "encoding": "inplace",
        "label": "address",
        "numberOfBytes": "20"
      },
      "t_int24": {
        "encoding": "inplace",
        "label": "int24",
        "numberOfBytes": "3"
      },
      "t_mapping(t_address,t_mapping(t_address,t_uint256))": {
        "encoding": "mapping",
        "key": "t_address",
        "label": "mapping(address => mapping(address => uint256))",
        "numberOfBytes": "32",
        "value": "t_mapping(t_address,t_uint256)"
      },
      "t_mapping(t_address,t_uint256)": {
        "encoding": "mapping",
        "key": "t_address",
        "label": "mapping(address => uint256)",
        "numberOfBytes": "32",
        "value": "t_uint256"
      },
      "t_string_storage": {
        "encoding": "bytes",
        "label": "string",
        "numberOfBytes": "32"
      },
      "t_uint128": {
        "encoding": "inplace",
        "label": "uint128",
        "numberOfBytes": "16"
      },
      "t_uint256": {
        "encoding": "inplace",
        "label": "uint256",
        "numberOfBytes": "32"
      },
      "t_uint32": {
        "encoding": "inplace",
        "label": "uint32",
        "numberOfBytes": "4"
      }
    }
  }
}